{
  "contractName": "ConnectFour",
  "abi": [
    {
      "constant": true,
      "inputs": [
        {
          "internalType": "uint256",
          "name": "",
          "type": "uint256"
        }
      ],
      "name": "games",
      "outputs": [
        {
          "internalType": "uint256",
          "name": "bid",
          "type": "uint256"
        },
        {
          "internalType": "uint256",
          "name": "lastTimePlayed",
          "type": "uint256"
        },
        {
          "internalType": "address",
          "name": "playerOneRed",
          "type": "address"
        },
        {
          "internalType": "address",
          "name": "playerTwoBlack",
          "type": "address"
        },
        {
          "internalType": "enum ConnectFour.BoardPiece",
          "name": "whoseTurn",
          "type": "uint8"
        },
        {
          "internalType": "bool",
          "name": "restricted",
          "type": "bool"
        },
        {
          "internalType": "bool",
          "name": "isStarted",
          "type": "bool"
        },
        {
          "internalType": "bool",
          "name": "gameOver",
          "type": "bool"
        }
      ],
      "payable": false,
      "stateMutability": "view",
      "type": "function"
    },
    {
      "constant": false,
      "inputs": [
        {
          "internalType": "address payable",
          "name": "payee",
          "type": "address"
        }
      ],
      "name": "withdrawPayments",
      "outputs": [],
      "payable": false,
      "stateMutability": "nonpayable",
      "type": "function"
    },
    {
      "constant": false,
      "inputs": [
        {
          "internalType": "address payable",
          "name": "payee",
          "type": "address"
        }
      ],
      "name": "withdrawPaymentsWithGas",
      "outputs": [],
      "payable": false,
      "stateMutability": "nonpayable",
      "type": "function"
    },
    {
      "constant": true,
      "inputs": [
        {
          "internalType": "address",
          "name": "dest",
          "type": "address"
        }
      ],
      "name": "payments",
      "outputs": [
        {
          "internalType": "uint256",
          "name": "",
          "type": "uint256"
        }
      ],
      "payable": false,
      "stateMutability": "view",
      "type": "function"
    },
    {
      "constant": true,
      "inputs": [],
      "name": "moveTimeout",
      "outputs": [
        {
          "internalType": "uint256",
          "name": "",
          "type": "uint256"
        }
      ],
      "payable": false,
      "stateMutability": "view",
      "type": "function"
    },
    {
      "inputs": [
        {
          "internalType": "uint256",
          "name": "timeout",
          "type": "uint256"
        }
      ],
      "payable": false,
      "stateMutability": "nonpayable",
      "type": "constructor"
    },
    {
      "anonymous": false,
      "inputs": [
        {
          "indexed": false,
          "internalType": "uint256",
          "name": "gameId",
          "type": "uint256"
        },
        {
          "indexed": false,
          "internalType": "bool",
          "name": "restricted",
          "type": "bool"
        }
      ],
      "name": "logGameCreated",
      "type": "event"
    },
    {
      "anonymous": false,
      "inputs": [
        {
          "indexed": false,
          "internalType": "uint256",
          "name": "gameId",
          "type": "uint256"
        }
      ],
      "name": "logGameStart",
      "type": "event"
    },
    {
      "anonymous": false,
      "inputs": [
        {
          "indexed": false,
          "internalType": "uint256",
          "name": "gameId",
          "type": "uint256"
        },
        {
          "indexed": false,
          "internalType": "enum ConnectFour.BoardPiece",
          "name": "who",
          "type": "uint8"
        },
        {
          "indexed": false,
          "internalType": "uint8",
          "name": "position",
          "type": "uint8"
        }
      ],
      "name": "logMoveMade",
      "type": "event"
    },
    {
      "anonymous": false,
      "inputs": [
        {
          "indexed": false,
          "internalType": "uint256",
          "name": "gameId",
          "type": "uint256"
        },
        {
          "indexed": false,
          "internalType": "address",
          "name": "winner",
          "type": "address"
        }
      ],
      "name": "logGameEnd",
      "type": "event"
    },
    {
      "anonymous": false,
      "inputs": [
        {
          "indexed": false,
          "internalType": "uint256",
          "name": "gameId",
          "type": "uint256"
        }
      ],
      "name": "logGameCancel",
      "type": "event"
    },
    {
      "constant": false,
      "inputs": [],
      "name": "createNewGame",
      "outputs": [],
      "payable": true,
      "stateMutability": "payable",
      "type": "function"
    },
    {
      "constant": false,
      "inputs": [
        {
          "internalType": "address",
          "name": "playerTwo",
          "type": "address"
        }
      ],
      "name": "createNewRestrictedGame",
      "outputs": [],
      "payable": true,
      "stateMutability": "payable",
      "type": "function"
    },
    {
      "constant": false,
      "inputs": [
        {
          "internalType": "uint256",
          "name": "gameId",
          "type": "uint256"
        }
      ],
      "name": "joinGame",
      "outputs": [],
      "payable": true,
      "stateMutability": "payable",
      "type": "function"
    },
    {
      "constant": false,
      "inputs": [
        {
          "internalType": "uint256",
          "name": "gameId",
          "type": "uint256"
        }
      ],
      "name": "cancelCreatedGame",
      "outputs": [],
      "payable": false,
      "stateMutability": "nonpayable",
      "type": "function"
    },
    {
      "constant": false,
      "inputs": [
        {
          "internalType": "uint256",
          "name": "gameId",
          "type": "uint256"
        }
      ],
      "name": "forfeit",
      "outputs": [],
      "payable": false,
      "stateMutability": "nonpayable",
      "type": "function"
    },
    {
      "constant": false,
      "inputs": [
        {
          "internalType": "uint256",
          "name": "gameId",
          "type": "uint256"
        }
      ],
      "name": "claimTimeoutVictory",
      "outputs": [],
      "payable": false,
      "stateMutability": "nonpayable",
      "type": "function"
    },
    {
      "constant": false,
      "inputs": [
        {
          "internalType": "uint256",
          "name": "gameId",
          "type": "uint256"
        },
        {
          "internalType": "uint8",
          "name": "moveToMake",
          "type": "uint8"
        },
        {
          "internalType": "uint8[4]",
          "name": "claim",
          "type": "uint8[4]"
        }
      ],
      "name": "makeMoveAndClaimVictory",
      "outputs": [],
      "payable": false,
      "stateMutability": "nonpayable",
      "type": "function"
    },
    {
      "constant": false,
      "inputs": [
        {
          "internalType": "uint256",
          "name": "gameId",
          "type": "uint256"
        },
        {
          "internalType": "uint8",
          "name": "position",
          "type": "uint8"
        }
      ],
      "name": "makeMove",
      "outputs": [],
      "payable": false,
      "stateMutability": "nonpayable",
      "type": "function"
    },
    {
      "constant": true,
      "inputs": [
        {
          "internalType": "uint256",
          "name": "gameId",
          "type": "uint256"
        },
        {
          "internalType": "enum ConnectFour.BoardPiece",
          "name": "who",
          "type": "uint8"
        },
        {
          "internalType": "uint8[4]",
          "name": "moves",
          "type": "uint8[4]"
        }
      ],
      "name": "checkHasWon",
      "outputs": [
        {
          "internalType": "bool",
          "name": "",
          "type": "bool"
        }
      ],
      "payable": false,
      "stateMutability": "view",
      "type": "function"
    },
    {
      "constant": true,
      "inputs": [
        {
          "internalType": "uint256",
          "name": "gameId",
          "type": "uint256"
        }
      ],
      "name": "getBid",
      "outputs": [
        {
          "internalType": "uint256",
          "name": "",
          "type": "uint256"
        }
      ],
      "payable": false,
      "stateMutability": "view",
      "type": "function"
    },
    {
      "constant": true,
      "inputs": [
        {
          "internalType": "uint256",
          "name": "gameId",
          "type": "uint256"
        }
      ],
      "name": "getLastTimePlayed",
      "outputs": [
        {
          "internalType": "uint256",
          "name": "",
          "type": "uint256"
        }
      ],
      "payable": false,
      "stateMutability": "view",
      "type": "function"
    },
    {
      "constant": true,
      "inputs": [
        {
          "internalType": "uint256",
          "name": "gameId",
          "type": "uint256"
        }
      ],
      "name": "getPlayerOne",
      "outputs": [
        {
          "internalType": "address",
          "name": "",
          "type": "address"
        }
      ],
      "payable": false,
      "stateMutability": "view",
      "type": "function"
    },
    {
      "constant": true,
      "inputs": [
        {
          "internalType": "uint256",
          "name": "gameId",
          "type": "uint256"
        }
      ],
      "name": "getPlayerTwo",
      "outputs": [
        {
          "internalType": "address",
          "name": "",
          "type": "address"
        }
      ],
      "payable": false,
      "stateMutability": "view",
      "type": "function"
    },
    {
      "constant": true,
      "inputs": [
        {
          "internalType": "uint256",
          "name": "gameId",
          "type": "uint256"
        }
      ],
      "name": "getBoard",
      "outputs": [
        {
          "internalType": "enum ConnectFour.BoardPiece[42]",
          "name": "",
          "type": "uint8[42]"
        }
      ],
      "payable": false,
      "stateMutability": "view",
      "type": "function"
    },
    {
      "constant": true,
      "inputs": [
        {
          "internalType": "uint256",
          "name": "gameId",
          "type": "uint256"
        }
      ],
      "name": "getWhoseTurn",
      "outputs": [
        {
          "internalType": "enum ConnectFour.BoardPiece",
          "name": "",
          "type": "uint8"
        }
      ],
      "payable": false,
      "stateMutability": "view",
      "type": "function"
    },
    {
      "constant": true,
      "inputs": [
        {
          "internalType": "uint256",
          "name": "gameId",
          "type": "uint256"
        }
      ],
      "name": "getRestricted",
      "outputs": [
        {
          "internalType": "bool",
          "name": "",
          "type": "bool"
        }
      ],
      "payable": false,
      "stateMutability": "view",
      "type": "function"
    },
    {
      "constant": true,
      "inputs": [
        {
          "internalType": "uint256",
          "name": "gameId",
          "type": "uint256"
        }
      ],
      "name": "getIsStarted",
      "outputs": [
        {
          "internalType": "bool",
          "name": "",
          "type": "bool"
        }
      ],
      "payable": false,
      "stateMutability": "view",
      "type": "function"
    },
    {
      "constant": true,
      "inputs": [
        {
          "internalType": "uint256",
          "name": "gameId",
          "type": "uint256"
        }
      ],
      "name": "getGameOver",
      "outputs": [
        {
          "internalType": "bool",
          "name": "",
          "type": "bool"
        }
      ],
      "payable": false,
      "stateMutability": "view",
      "type": "function"
    }
  ],
  "bytecode": "0x60806040523480156200001157600080fd5b50604051620030ad380380620030ad833981810160405260208110156200003757600080fd5b81019080805190602001909291905050506040516200005690620000c1565b604051809103906000f08015801562000073573d6000803e3d6000fd5b506000806101000a81548173ffffffffffffffffffffffffffffffffffffffff021916908373ffffffffffffffffffffffffffffffffffffffff1602179055508060018190555050620000cf565b610d29806200238483390190565b6122a580620000df6000396000f3fe6080604052600436106101405760003560e01c80637fd6f7c4116100b6578063bfd2b6281161006f578063bfd2b6281461078e578063e2982c211461082f578063eb87eb5e14610894578063efaa55a01461089e578063eff53a69146108cc578063fdb894ac1461090757610140565b80637fd6f7c41461059c57806385870dcf146105e45780639e693e5d14610628578063a100724c1461067b578063a960f05b146106d8578063b153ac551461075357610140565b80633d412d0f116101085780633d412d0f146103785780633ed546ab146103f357806345e09e541461042e5780635e0d8a26146104a5578063653cfa59146104f85780637e24c66b1461054957610140565b80630628b6ba14610145578063117a5b9014610194578063224bbbac1461028657806331b3eb94146102d85780633c889e6f14610329575b600080fd5b34801561015157600080fd5b5061017e6004803603602081101561016857600080fd5b8101908080359060200190929190505050610932565b6040518082815260200191505060405180910390f35b3480156101a057600080fd5b506101cd600480360360208110156101b757600080fd5b8101908080359060200190929190505050610952565b604051808981526020018881526020018773ffffffffffffffffffffffffffffffffffffffff1673ffffffffffffffffffffffffffffffffffffffff1681526020018673ffffffffffffffffffffffffffffffffffffffff1673ffffffffffffffffffffffffffffffffffffffff16815260200185600281111561024d57fe5b60ff1681526020018415151515815260200183151515158152602001821515151581526020019850505050505050505060405180910390f35b34801561029257600080fd5b506102d6600480360360c08110156102a957600080fd5b8101908080359060200190929190803560ff16906020019092919080608001909192919290505050610a0e565b005b3480156102e457600080fd5b50610327600480360360208110156102fb57600080fd5b81019080803573ffffffffffffffffffffffffffffffffffffffff169060200190929190505050610b47565b005b34801561033557600080fd5b506103626004803603602081101561034c57600080fd5b8101908080359060200190929190505050610c02565b6040518082815260200191505060405180910390f35b34801561038457600080fd5b506103b16004803603602081101561039b57600080fd5b8101908080359060200190929190505050610c22565b604051808273ffffffffffffffffffffffffffffffffffffffff1673ffffffffffffffffffffffffffffffffffffffff16815260200191505060405180910390f35b3480156103ff57600080fd5b5061042c6004803603602081101561041657600080fd5b8101908080359060200190929190505050610c62565b005b34801561043a57600080fd5b506104676004803603602081101561045157600080fd5b8101908080359060200190929190505050610f01565b6040518082602a60200280838360005b83811015610492578082015181840152602081019050610477565b5050505090500191505060405180910390f35b3480156104b157600080fd5b506104de600480360360208110156104c857600080fd5b8101908080359060200190929190505050610f90565b604051808215151515815260200191505060405180910390f35b34801561050457600080fd5b506105476004803603602081101561051b57600080fd5b81019080803573ffffffffffffffffffffffffffffffffffffffff169060200190929190505050610fbd565b005b34801561055557600080fd5b506105826004803603602081101561056c57600080fd5b8101908080359060200190929190505050611078565b604051808215151515815260200191505060405180910390f35b3480156105a857600080fd5b506105e2600480360360408110156105bf57600080fd5b8101908080359060200190929190803560ff1690602001909291905050506110a5565b005b610626600480360360208110156105fa57600080fd5b81019080803573ffffffffffffffffffffffffffffffffffffffff169060200190929190505050611396565b005b34801561063457600080fd5b506106616004803603602081101561064b57600080fd5b810190808035906020019092919050505061146c565b604051808215151515815260200191505060405180910390f35b34801561068757600080fd5b506106b46004803603602081101561069e57600080fd5b8101908080359060200190929190505050611499565b604051808260028111156106c457fe5b60ff16815260200191505060405180910390f35b3480156106e457600080fd5b50610711600480360360208110156106fb57600080fd5b81019080803590602001909291905050506114c6565b604051808273ffffffffffffffffffffffffffffffffffffffff1673ffffffffffffffffffffffffffffffffffffffff16815260200191505060405180910390f35b34801561075f57600080fd5b5061078c6004803603602081101561077657600080fd5b8101908080359060200190929190505050611506565b005b34801561079a57600080fd5b50610815600480360360c08110156107b157600080fd5b8101908080359060200190929190803560ff16906020019092919080608001906004806020026040519081016040528092919082600460200280828437600081840152601f19601f82011690508083019250505050505091929192905050506116fd565b604051808215151515815260200191505060405180910390f35b34801561083b57600080fd5b5061087e6004803603602081101561085257600080fd5b81019080803573ffffffffffffffffffffffffffffffffffffffff16906020019092919050505061198c565b6040518082815260200191505060405180910390f35b61089c611a6e565b005b6108ca600480360360208110156108b457600080fd5b8101908080359060200190929190505050611a86565b005b3480156108d857600080fd5b50610905600480360360208110156108ef57600080fd5b8101908080359060200190929190505050611d3d565b005b34801561091357600080fd5b5061091c611e18565b6040518082815260200191505060405180910390f35b600060036000838152602001908152602001600020600101549050919050565b60036020528060005260406000206000915090508060000154908060010154908060020160009054906101000a900473ffffffffffffffffffffffffffffffffffffffff16908060030160009054906101000a900473ffffffffffffffffffffffffffffffffffffffff16908060030160149054906101000a900460ff16908060030160159054906101000a900460ff16908060030160169054906101000a900460ff16908060030160179054906101000a900460ff16905088565b82610a1881611e1e565b73ffffffffffffffffffffffffffffffffffffffff163373ffffffffffffffffffffffffffffffffffffffff1614610a4f57600080fd5b836003600082815260200190815260200160002060030160169054906101000a900460ff168015610aa157506003600082815260200190815260200160002060030160179054906101000a900460ff16155b610aaa57600080fd5b60006003600087815260200190815260200160002060030160149054906101000a900460ff1690506000610add87611e1e565b9050610ae987876110a5565b610b2b8783876004806020026040519081016040528092919082600460200280828437600081840152601f19601f8201169050808301925050505050506116fd565b610b3457600080fd5b610b3e8782611f0c565b50505050505050565b6000809054906101000a900473ffffffffffffffffffffffffffffffffffffffff1673ffffffffffffffffffffffffffffffffffffffff166351cff8d9826040518263ffffffff1660e01b8152600401808273ffffffffffffffffffffffffffffffffffffffff1673ffffffffffffffffffffffffffffffffffffffff168152602001915050600060405180830381600087803b158015610be757600080fd5b505af1158015610bfb573d6000803e3d6000fd5b5050505050565b600060036000838152602001908152602001600020600001549050919050565b60006003600083815260200190815260200160002060030160009054906101000a900473ffffffffffffffffffffffffffffffffffffffff169050919050565b806003600082815260200190815260200160002060030160169054906101000a900460ff168015610cb457506003600082815260200190815260200160002060030160179054906101000a900460ff16155b610cbd57600080fd5b816003600082815260200190815260200160002060020160009054906101000a900473ffffffffffffffffffffffffffffffffffffffff1673ffffffffffffffffffffffffffffffffffffffff163373ffffffffffffffffffffffffffffffffffffffff161480610d8f57506003600082815260200190815260200160002060030160009054906101000a900473ffffffffffffffffffffffffffffffffffffffff1673ffffffffffffffffffffffffffffffffffffffff163373ffffffffffffffffffffffffffffffffffffffff16145b610d9857600080fd5b6003600084815260200190815260200160002060020160009054906101000a900473ffffffffffffffffffffffffffffffffffffffff1673ffffffffffffffffffffffffffffffffffffffff163373ffffffffffffffffffffffffffffffffffffffff161415610e4757610e42836003600086815260200190815260200160002060030160009054906101000a900473ffffffffffffffffffffffffffffffffffffffff16611f0c565b610efc565b6003600084815260200190815260200160002060030160009054906101000a900473ffffffffffffffffffffffffffffffffffffffff1673ffffffffffffffffffffffffffffffffffffffff163373ffffffffffffffffffffffffffffffffffffffff161415610ef657610ef1836003600086815260200190815260200160002060020160009054906101000a900473ffffffffffffffffffffffffffffffffffffffff16611f0c565b610efb565b600080fd5b5b505050565b610f0961224d565b60036000838152602001908152602001600020600401602a806020026040519081016040528092919082602a8015610f84576020028201916000905b82829054906101000a900460ff166002811115610f5e57fe5b81526020019060010190602082600001049283019260010382029150808411610f455790505b50505050509050919050565b60006003600083815260200190815260200160002060030160179054906101000a900460ff169050919050565b6000809054906101000a900473ffffffffffffffffffffffffffffffffffffffff1673ffffffffffffffffffffffffffffffffffffffff16636809691a826040518263ffffffff1660e01b8152600401808273ffffffffffffffffffffffffffffffffffffffff1673ffffffffffffffffffffffffffffffffffffffff168152602001915050600060405180830381600087803b15801561105d57600080fd5b505af1158015611071573d6000803e3d6000fd5b5050505050565b60006003600083815260200190815260200160002060030160169054906101000a900460ff169050919050565b816110af81611e1e565b73ffffffffffffffffffffffffffffffffffffffff163373ffffffffffffffffffffffffffffffffffffffff16146110e657600080fd5b826003600082815260200190815260200160002060030160169054906101000a900460ff16801561113857506003600082815260200190815260200160002060030160179054906101000a900460ff16155b61114157600080fd5b60006003600086815260200190815260200160002060030160149054906101000a900460ff16905060008460ff1610158015611181575060298460ff1611155b61118a57600080fd5b6000600281111561119757fe5b600360008781526020019081526020016000206004018560ff16602a81106111bb57fe5b602091828204019190069054906101000a900460ff1660028111156111dc57fe5b146111e657600080fd5b60078460ff161061125257600060028111156111fe57fe5b600360008781526020019081526020016000206004016007860360ff16602a811061122557fe5b602091828204019190069054906101000a900460ff16600281111561124657fe5b141561125157600080fd5b5b80600360008781526020019081526020016000206004018560ff16602a811061127757fe5b602091828204019190066101000a81548160ff0219169083600281111561129a57fe5b0217905550600160028111156112ac57fe5b8160028111156112b857fe5b14156112fb5760026003600087815260200190815260200160002060030160146101000a81548160ff021916908360028111156112f157fe5b0217905550611334565b60016003600087815260200190815260200160002060030160146101000a81548160ff0219169083600281111561132e57fe5b02179055505b7f524366571c14a79b0a13271deb2f90e50a95e86fe8f069fbedcf8a9ad5441ea08582866040518084815260200183600281111561136e57fe5b60ff1681526020018260ff1660ff168152602001935050505060405180910390a15050505050565b3373ffffffffffffffffffffffffffffffffffffffff168173ffffffffffffffffffffffffffffffffffffffff1614156113cf57600080fd5b60006113d9611fd3565b905060016003600083815260200190815260200160002060030160156101000a81548160ff021916908315150217905550816003600083815260200190815260200160002060030160006101000a81548173ffffffffffffffffffffffffffffffffffffffff021916908373ffffffffffffffffffffffffffffffffffffffff16021790555061146881611feb565b5050565b60006003600083815260200190815260200160002060030160159054906101000a900460ff169050919050565b60006003600083815260200190815260200160002060030160149054906101000a900460ff169050919050565b60006003600083815260200190815260200160002060020160009054906101000a900473ffffffffffffffffffffffffffffffffffffffff169050919050565b80600073ffffffffffffffffffffffffffffffffffffffff166003600083815260200190815260200160002060020160009054906101000a900473ffffffffffffffffffffffffffffffffffffffff1673ffffffffffffffffffffffffffffffffffffffff16141561157757600080fd5b816003600082815260200190815260200160002060030160169054906101000a900460ff161580156115ca57506003600082815260200190815260200160002060030160179054906101000a900460ff16155b6115d357600080fd5b826003600082815260200190815260200160002060020160009054906101000a900473ffffffffffffffffffffffffffffffffffffffff1673ffffffffffffffffffffffffffffffffffffffff163373ffffffffffffffffffffffffffffffffffffffff161461164257600080fd5b60016003600086815260200190815260200160002060030160166101000a81548160ff02191690831515021790555060016003600086815260200190815260200160002060030160176101000a81548160ff0219169083151502179055506116c03360036000878152602001908152602001600020600001546120a2565b7f205fbe38a5a5dba05069ab167682b12bbeabc051d0d6ee955ec20568107472ca846040518082815260200191505060405180910390a150505050565b600080600090505b60048160ff1610156117d3576000838260ff166004811061172257fe5b602002015160ff161015801561174f57506029838260ff166004811061174457fe5b602002015160ff1611155b61175857600080fd5b83600281111561176457fe5b60036000878152602001908152602001600020600401848360ff166004811061178957fe5b602002015160ff16602a811061179b57fe5b602091828204019190069054906101000a900460ff1660028111156117bc57fe5b146117c657600080fd5b8080600101915050611705565b50816001600481106117e157fe5b602002015160ff16826000600481106117f657fe5b602002015160ff161061180857600080fd5b60008260006004811061181757fe5b60200201518360016004811061182957fe5b60200201510390508060ff168360016004811061184257fe5b60200201518460026004811061185457fe5b60200201510360ff1614801561189357508060ff168360026004811061187657fe5b60200201518460036004811061188857fe5b60200201510360ff16145b61189c57600080fd5b60018160ff1614806118b1575060088160ff16145b15611909576007836003600481106118c557fe5b602002015160ff16816118d457fe5b0660ff166007846000600481106118e757fe5b602002015160ff16816118f657fe5b0660ff161061190457600080fd5b611980565b60068160ff1614156119685760078360006004811061192457fe5b602002015160ff168161193357fe5b0660ff1660078460036004811061194657fe5b602002015160ff168161195557fe5b0660ff161061196357600080fd5b61197f565b60078160ff1614156119795761197e565b600080fd5b5b5b60019150509392505050565b60008060009054906101000a900473ffffffffffffffffffffffffffffffffffffffff1673ffffffffffffffffffffffffffffffffffffffff1663e3a9db1a836040518263ffffffff1660e01b8152600401808273ffffffffffffffffffffffffffffffffffffffff1673ffffffffffffffffffffffffffffffffffffffff16815260200191505060206040518083038186803b158015611a2c57600080fd5b505afa158015611a40573d6000803e3d6000fd5b505050506040513d6020811015611a5657600080fd5b81019080805190602001909291905050509050919050565b6000611a78611fd3565b9050611a8381611feb565b50565b80600073ffffffffffffffffffffffffffffffffffffffff166003600083815260200190815260200160002060020160009054906101000a900473ffffffffffffffffffffffffffffffffffffffff1673ffffffffffffffffffffffffffffffffffffffff161415611af757600080fd5b816003600082815260200190815260200160002060030160169054906101000a900460ff16158015611b4a57506003600082815260200190815260200160002060030160179054906101000a900460ff16155b611b5357600080fd5b3373ffffffffffffffffffffffffffffffffffffffff16611b73846114c6565b73ffffffffffffffffffffffffffffffffffffffff161415611b9457600080fd5b611b9d83610c02565b3414611ba857600080fd5b611bb18361146c565b15611c29573373ffffffffffffffffffffffffffffffffffffffff166003600085815260200190815260200160002060030160009054906101000a900473ffffffffffffffffffffffffffffffffffffffff1673ffffffffffffffffffffffffffffffffffffffff1614611c2457600080fd5b611c7f565b336003600085815260200190815260200160002060030160006101000a81548173ffffffffffffffffffffffffffffffffffffffff021916908373ffffffffffffffffffffffffffffffffffffffff1602179055505b42600360008581526020019081526020016000206001018190555060016003600085815260200190815260200160002060030160166101000a81548160ff02191690831515021790555060016003600085815260200190815260200160002060030160146101000a81548160ff02191690836002811115611cfc57fe5b02179055507fb67b12ea4e48bdaf33fea4567f20c1b9d1e570f99cfbe8b3c359d2e1ac352dca836040518082815260200191505060405180910390a1505050565b806001546003600083815260200190815260200160002060010154014211611d6457600080fd5b81611d6e8161215f565b73ffffffffffffffffffffffffffffffffffffffff163373ffffffffffffffffffffffffffffffffffffffff1614611da557600080fd5b826003600082815260200190815260200160002060030160169054906101000a900460ff168015611df757506003600082815260200190815260200160002060030160179054906101000a900460ff16155b611e0057600080fd5b611e1284611e0d8661215f565b611f0c565b50505050565b60015481565b6000806003600084815260200190815260200160002060030160149054906101000a900460ff16905060016002811115611e5457fe5b816002811115611e6057fe5b1415611ea5576003600084815260200190815260200160002060020160009054906101000a900473ffffffffffffffffffffffffffffffffffffffff16915050611f07565b600280811115611eb157fe5b816002811115611ebd57fe5b1415611f02576003600084815260200190815260200160002060030160009054906101000a900473ffffffffffffffffffffffffffffffffffffffff16915050611f07565b600080fd5b919050565b60016003600084815260200190815260200160002060030160176101000a81548160ff021916908315150217905550600060026003600085815260200190815260200160002060000154029050611f6382826120a2565b7f2799f7db9b662090ba734216b411a1786edb43fd4d384f1eb7f332e824347bf98383604051808381526020018273ffffffffffffffffffffffffffffffffffffffff1673ffffffffffffffffffffffffffffffffffffffff1681526020019250505060405180910390a1505050565b60006002600081548092919060010191905055905090565b346003600083815260200190815260200160002060000181905550336003600083815260200190815260200160002060020160006101000a81548173ffffffffffffffffffffffffffffffffffffffff021916908373ffffffffffffffffffffffffffffffffffffffff1602179055507feaf0b95c5849c1d74de24977c84c7991623dd2d4645913aa4dc5866d53a0b14581600060405180838152602001821515151581526020019250505060405180910390a150565b6000809054906101000a900473ffffffffffffffffffffffffffffffffffffffff1673ffffffffffffffffffffffffffffffffffffffff1663f340fa0182846040518363ffffffff1660e01b8152600401808273ffffffffffffffffffffffffffffffffffffffff1673ffffffffffffffffffffffffffffffffffffffff1681526020019150506000604051808303818588803b15801561214257600080fd5b505af1158015612156573d6000803e3d6000fd5b50505050505050565b6000806003600084815260200190815260200160002060030160149054906101000a900460ff1690506001600281111561219557fe5b8160028111156121a157fe5b14156121e6576003600084815260200190815260200160002060030160009054906101000a900473ffffffffffffffffffffffffffffffffffffffff16915050612248565b6002808111156121f257fe5b8160028111156121fe57fe5b1415612243576003600084815260200190815260200160002060020160009054906101000a900473ffffffffffffffffffffffffffffffffffffffff16915050612248565b600080fd5b919050565b604051806105400160405280602a9060208202803883398082019150509050509056fea265627a7a72315820c824ff0f01fab20f5b49109fb7919eb65cb3287fc4836377afd89165c0ed813364736f6c634300050b0032608060405260006100146100bf60201b60201c565b9050806000806101000a81548173ffffffffffffffffffffffffffffffffffffffff021916908373ffffffffffffffffffffffffffffffffffffffff1602179055507f4101e71e974f68df5e9730cc223280b41654676bbb052cdcc735c3337e64d2d981604051808273ffffffffffffffffffffffffffffffffffffffff1673ffffffffffffffffffffffffffffffffffffffff16815260200191505060405180910390a1506100c7565b600033905090565b610c53806100d66000396000f3fe6080604052600436106100555760003560e01c80632348238c1461005a57806351cff8d9146100ab5780636809691a146100fc578063c6dbdf611461014d578063e3a9db1a146101a4578063f340fa0114610209575b600080fd5b34801561006657600080fd5b506100a96004803603602081101561007d57600080fd5b81019080803573ffffffffffffffffffffffffffffffffffffffff16906020019092919050505061024d565b005b3480156100b757600080fd5b506100fa600480360360208110156100ce57600080fd5b81019080803573ffffffffffffffffffffffffffffffffffffffff169060200190929190505050610425565b005b34801561010857600080fd5b5061014b6004803603602081101561011f57600080fd5b81019080803573ffffffffffffffffffffffffffffffffffffffff1690602001909291905050506105f3565b005b34801561015957600080fd5b506101626107a3565b604051808273ffffffffffffffffffffffffffffffffffffffff1673ffffffffffffffffffffffffffffffffffffffff16815260200191505060405180910390f35b3480156101b057600080fd5b506101f3600480360360208110156101c757600080fd5b81019080803573ffffffffffffffffffffffffffffffffffffffff1690602001909291905050506107cc565b6040518082815260200191505060405180910390f35b61024b6004803603602081101561021f57600080fd5b81019080803573ffffffffffffffffffffffffffffffffffffffff169060200190929190505050610815565b005b6000809054906101000a900473ffffffffffffffffffffffffffffffffffffffff1673ffffffffffffffffffffffffffffffffffffffff1661028d6109ad565b73ffffffffffffffffffffffffffffffffffffffff16146102f9576040517f08c379a000000000000000000000000000000000000000000000000000000000815260040180806020018281038252602c815260200180610bf3602c913960400191505060405180910390fd5b600073ffffffffffffffffffffffffffffffffffffffff168173ffffffffffffffffffffffffffffffffffffffff16141561037f576040517f08c379a000000000000000000000000000000000000000000000000000000000815260040180806020018281038252602a815260200180610bc9602a913960400191505060405180910390fd5b806000806101000a81548173ffffffffffffffffffffffffffffffffffffffff021916908373ffffffffffffffffffffffffffffffffffffffff1602179055507f4101e71e974f68df5e9730cc223280b41654676bbb052cdcc735c3337e64d2d981604051808273ffffffffffffffffffffffffffffffffffffffff1673ffffffffffffffffffffffffffffffffffffffff16815260200191505060405180910390a150565b6000809054906101000a900473ffffffffffffffffffffffffffffffffffffffff1673ffffffffffffffffffffffffffffffffffffffff166104656109ad565b73ffffffffffffffffffffffffffffffffffffffff16146104d1576040517f08c379a000000000000000000000000000000000000000000000000000000000815260040180806020018281038252602c815260200180610bf3602c913960400191505060405180910390fd5b6000600160008373ffffffffffffffffffffffffffffffffffffffff1673ffffffffffffffffffffffffffffffffffffffff1681526020019081526020016000205490506000600160008473ffffffffffffffffffffffffffffffffffffffff1673ffffffffffffffffffffffffffffffffffffffff168152602001908152602001600020819055508173ffffffffffffffffffffffffffffffffffffffff166108fc829081150290604051600060405180830381858888f193505050501580156105a0573d6000803e3d6000fd5b508173ffffffffffffffffffffffffffffffffffffffff167f7084f5476618d8e60b11ef0d7d3f06914655adb8793e28ff7f018d4c76d505d5826040518082815260200191505060405180910390a25050565b6000809054906101000a900473ffffffffffffffffffffffffffffffffffffffff1673ffffffffffffffffffffffffffffffffffffffff166106336109ad565b73ffffffffffffffffffffffffffffffffffffffff161461069f576040517f08c379a000000000000000000000000000000000000000000000000000000000815260040180806020018281038252602c815260200180610bf3602c913960400191505060405180910390fd5b6000600160008373ffffffffffffffffffffffffffffffffffffffff1673ffffffffffffffffffffffffffffffffffffffff1681526020019081526020016000205490506000600160008473ffffffffffffffffffffffffffffffffffffffff1673ffffffffffffffffffffffffffffffffffffffff16815260200190815260200160002081905550610751818373ffffffffffffffffffffffffffffffffffffffff166109b590919063ffffffff16565b8173ffffffffffffffffffffffffffffffffffffffff167f7084f5476618d8e60b11ef0d7d3f06914655adb8793e28ff7f018d4c76d505d5826040518082815260200191505060405180910390a25050565b60008060009054906101000a900473ffffffffffffffffffffffffffffffffffffffff16905090565b6000600160008373ffffffffffffffffffffffffffffffffffffffff1673ffffffffffffffffffffffffffffffffffffffff168152602001908152602001600020549050919050565b6000809054906101000a900473ffffffffffffffffffffffffffffffffffffffff1673ffffffffffffffffffffffffffffffffffffffff166108556109ad565b73ffffffffffffffffffffffffffffffffffffffff16146108c1576040517f08c379a000000000000000000000000000000000000000000000000000000000815260040180806020018281038252602c815260200180610bf3602c913960400191505060405180910390fd5b600034905061091881600160008573ffffffffffffffffffffffffffffffffffffffff1673ffffffffffffffffffffffffffffffffffffffff16815260200190815260200160002054610b0690919063ffffffff16565b600160008473ffffffffffffffffffffffffffffffffffffffff1673ffffffffffffffffffffffffffffffffffffffff168152602001908152602001600020819055508173ffffffffffffffffffffffffffffffffffffffff167f2da466a7b24304f47e87fa2e1e5a81b9831ce54fec19055ce277ca2f39ba42c4826040518082815260200191505060405180910390a25050565b600033905090565b803073ffffffffffffffffffffffffffffffffffffffff16311015610a42576040517f08c379a000000000000000000000000000000000000000000000000000000000815260040180806020018281038252601d8152602001807f416464726573733a20696e73756666696369656e742062616c616e636500000081525060200191505060405180910390fd5b60008273ffffffffffffffffffffffffffffffffffffffff168260405180600001905060006040518083038185875af1925050503d8060008114610aa2576040519150601f19603f3d011682016040523d82523d6000602084013e610aa7565b606091505b5050905080610b01576040517f08c379a000000000000000000000000000000000000000000000000000000000815260040180806020018281038252603a815260200180610b8f603a913960400191505060405180910390fd5b505050565b600080828401905083811015610b84576040517f08c379a000000000000000000000000000000000000000000000000000000000815260040180806020018281038252601b8152602001807f536166654d6174683a206164646974696f6e206f766572666c6f77000000000081525060200191505060405180910390fd5b809150509291505056fe416464726573733a20756e61626c6520746f2073656e642076616c75652c20726563697069656e74206d617920686176652072657665727465645365636f6e646172793a206e6577207072696d61727920697320746865207a65726f20616464726573735365636f6e646172793a2063616c6c6572206973206e6f7420746865207072696d617279206163636f756e74a265627a7a723158201ca673679fae4e385aec60fae6f8b7727fbc7e19df2c94012742eabc4982b81c64736f6c634300050b0032",
  "source": "pragma solidity 0.5.11;\n\nimport \"@openzeppelin/contracts/payment/PullPayment.sol\";\n//function asyncTransfer(address dest, uint256 amount) internal;\n//function withdrawPayments() public;\n\ncontract ConnectFour is PullPayment {\n\n  enum BoardPiece {NONE, RED, BLACK}\n\n  //Encapsulates total game lead.\n  struct GameState {\n    uint bid; //How much each player bids\n    uint lastTimePlayed; //When was the last move made?\n\n    address playerOneRed;\n    address playerTwoBlack;\n\n    BoardPiece whoseTurn;\n\n    bool restricted;\n    bool isStarted;\n    bool gameOver;\n\n    //Board is 7 columns by 6 rows\n    //0 is the bottom-left corner of the board\n    //1 is the second from the left on the bottom\n    //6 is the bottom-right corner\n    //7 is the left on the second-to-bottom row\n    //41 is the top-right\n    BoardPiece[42] board;\n  }\n\n  event logGameCreated(uint gameId, bool restricted);\n  event logGameStart(uint gameId);\n  event logMoveMade(uint gameId, BoardPiece who, uint8 position);\n  event logGameEnd(uint gameId, address winner);\n  event logGameCancel(uint gameId);\n\n  //How long someone has to move before the other player can claim victory\n  uint public moveTimeout;\n\n  //Counter so each game has a unique ID\n  uint nextID;\n\n  //The state of all the games\n  mapping (uint => GameState) public games;\n\n  modifier onlyGameExists(uint gameId) {\n    require(games[gameId].playerOneRed != address(0));\n    _;\n  }\n\n  modifier onlyWhileNotStarted(uint gameId) {\n    require(!games[gameId].isStarted && !games[gameId].gameOver);\n    _;\n  }\n\n  modifier onlyWhilePlaying(uint gameId) {\n    require(games[gameId].isStarted && !games[gameId].gameOver);\n    _;\n  }\n\n  modifier onlyPlayers(uint gameId) {\n    require(msg.sender == games[gameId].playerOneRed\n      || msg.sender == games[gameId].playerTwoBlack);\n      _;\n  }\n\n  //Only the player whose turn it is\n  modifier onlyActivePlayer(uint gameId) {\n    require(msg.sender == getActivePlayer(gameId));\n    _;\n  }\n\n  //Only the player whose turn it isn't\n  modifier onlyInactivePlayer(uint gameId) {\n    require(msg.sender == getInactivePlayer(gameId));\n    _;\n  }\n\n  modifier onlyGameCreator(uint gameId) {\n    require(msg.sender == games[gameId].playerOneRed);\n    _;\n  }\n\n  modifier onlyAfterTimeout(uint gameId) {\n    require(now > games[gameId].lastTimePlayed + moveTimeout);\n    _;\n  }\n\n  constructor(uint timeout) public {\n    moveTimeout = timeout;\n  }\n\n  // fallback() external {\n  //   revert();\n  // }\n\n  //Creates a game with a unique ID. Anyone can join this game.\n  function createNewGame() external payable {\n    uint gameId = createUniqueId();\n    createNewGameEntry(gameId);\n  }\n\n  //Creates a game where only a specified player can join.\n  function createNewRestrictedGame(address playerTwo) external payable {\n    require(playerTwo != msg.sender);\n    uint gameId = createUniqueId();\n    games[gameId].restricted = true;\n    games[gameId].playerTwoBlack = playerTwo;\n    createNewGameEntry(gameId);\n  }\n\n  //Join a game that another person has created.\n  function joinGame(uint gameId) external payable\n    onlyGameExists(gameId)\n    onlyWhileNotStarted(gameId)\n  {\n    require(getPlayerOne(gameId) != msg.sender);\n    require(msg.value == getBid(gameId));\n\n    if (getRestricted(gameId)) {\n      require(games[gameId].playerTwoBlack == msg.sender);\n    } else {\n      games[gameId].playerTwoBlack = msg.sender;\n    }\n\n    games[gameId].lastTimePlayed = now;\n    games[gameId].isStarted = true;\n    games[gameId].whoseTurn = BoardPiece.RED;\n    emit logGameStart(gameId);\n  }\n\n  //If nobody has joined your game, you can cancel and get money back\n  function cancelCreatedGame(uint gameId)\n    external\n    onlyGameExists(gameId)\n    onlyWhileNotStarted(gameId)\n    onlyGameCreator(gameId)\n  {\n    games[gameId].isStarted = true;\n    games[gameId].gameOver = true;\n\n    _asyncTransfer(msg.sender, games[gameId].bid);\n\n    emit logGameCancel(gameId);\n  }\n\n  function forfeit(uint gameId)\n    external\n    onlyWhilePlaying(gameId)\n    onlyPlayers(gameId)\n  {\n    if (msg.sender == games[gameId].playerOneRed) {\n      gameEnd(gameId, games[gameId].playerTwoBlack);\n    } else if (msg.sender == games[gameId].playerTwoBlack) {\n      gameEnd(gameId, games[gameId].playerOneRed);\n    } else {\n      //This should never happen\n      revert();\n    }\n  }\n\n  function claimTimeoutVictory(uint gameId)\n    external\n    onlyAfterTimeout(gameId)\n    onlyInactivePlayer(gameId)\n    onlyWhilePlaying(gameId)\n  {\n    gameEnd(gameId, getInactivePlayer(gameId));\n  }\n\n  //The pieces in toClaim must be sorted positions, least to greatest\n  function makeMoveAndClaimVictory(uint gameId, uint8 moveToMake, uint8[4] calldata claim)\n    external\n    onlyActivePlayer(gameId)\n    onlyWhilePlaying(gameId)\n  {\n    BoardPiece player = games[gameId].whoseTurn;\n    address playerAddress = getActivePlayer(gameId);\n\n    makeMove(gameId, moveToMake);\n\n    require(checkHasWon(gameId, player, claim));\n\n    gameEnd(gameId,playerAddress);\n  }\n\n  //If the move is valid, make a move on the board\n  function makeMove(uint gameId, uint8 position)\n    public\n    onlyActivePlayer(gameId)\n    onlyWhilePlaying(gameId)\n  {\n    BoardPiece player = games[gameId].whoseTurn;\n\n    require(position >= 0 && position <= 41);\n    require(games[gameId].board[position] == BoardPiece.NONE);\n\n    if (position >= 7){\n      require(games[gameId].board[position - 7] != BoardPiece.NONE);\n    }\n\n    games[gameId].board[position] = player;\n\n    if (player == BoardPiece.RED) {\n      games[gameId].whoseTurn = BoardPiece.BLACK;\n    } else {\n      games[gameId].whoseTurn = BoardPiece.RED;\n    }\n\n    emit logMoveMade(gameId, player, position);\n  }\n\n  //Is a set of four pieces a valid victory\n  function checkHasWon(uint gameId, BoardPiece who, uint8[4] memory moves) view public returns(bool){\n    for (uint8 i = 0; i<4; i++){\n      require(moves[i] >= 0 && moves[i] <= 41);\n      require(games[gameId].board[moves[i]] == who);\n    }\n\n    //First 2 pieces must be in increasing order\n    require(moves[0] < moves[1]);\n    uint8 diff = moves[1] - moves[0];\n\n    //All other pieces must line up the same as the first 2 (and also be increasing)\n    require(moves[2] - moves[1] == diff &&\n            moves[3] - moves[2] == diff);\n\n    //Make sure pieces are in a valid arrangement\n    //And prevent wrap-around\n    if (diff == 1 || diff == 8){\n      //The last piace should be further to the right than the first one\n      require(moves[0] % 7 < moves[3] % 7);\n    } else if (diff == 6){\n      //The last piece should be further to the left than the first one\n      require(moves[3] % 7 < moves[0] % 7);\n    } else if (diff == 7){\n      //Wrap-around isn't a problem with vertical pieces\n    } else{\n      revert();\n    }\n\n    return true;\n\n  }\n\n  //Accessor functions per game\n  function getBid(uint gameId) view public returns(uint) {\n    return games[gameId].bid;\n  }\n\n  function getLastTimePlayed(uint gameId) view public returns(uint){\n    return games[gameId].lastTimePlayed;\n  }\n\n  function getPlayerOne(uint gameId) view public returns(address){\n    return games[gameId].playerOneRed;\n  }\n\n  function getPlayerTwo(uint gameId) view public returns(address){\n    return games[gameId].playerTwoBlack;\n  }\n\n  function getBoard(uint gameId) view public returns(BoardPiece[42] memory){\n    return games[gameId].board;\n  }\n\n  function getWhoseTurn(uint gameId) view public returns(BoardPiece){\n    return games[gameId].whoseTurn;\n  }\n\n  function getRestricted(uint gameId) view public returns(bool){\n    return games[gameId].restricted;\n  }\n\n  function getIsStarted(uint gameId) view public returns(bool){\n    return games[gameId].isStarted;\n  }\n\n  function getGameOver(uint gameId) view public returns(bool){\n    return games[gameId].gameOver;\n  }\n\n  //Player that is currently going\n  function getActivePlayer(uint gameId) view internal returns(address){\n    BoardPiece player = games[gameId].whoseTurn;\n\n    if (player == BoardPiece.RED) {\n      return games[gameId].playerOneRed;\n    } else if (player == BoardPiece.BLACK) {\n      return games[gameId].playerTwoBlack;\n    } else {\n      revert();\n    }\n  }\n\n  //Player that is currently not going\n  function getInactivePlayer(uint gameId) view internal returns(address){\n    BoardPiece player = games[gameId].whoseTurn;\n\n    if (player == BoardPiece.RED) {\n      return games[gameId].playerTwoBlack;\n    } else if (player == BoardPiece.BLACK) {\n      return games[gameId].playerOneRed;\n    } else {\n      revert();\n    }\n  }\n\n  //Increment the game ID and return it\n  function createUniqueId() private returns(uint) {\n    return nextID++;\n  }\n\n  //Helper function for game creation\n  function createNewGameEntry(uint gameId) private{\n    games[gameId].bid = msg.value;\n    games[gameId].playerOneRed = msg.sender;\n    emit logGameCreated(gameId, false);\n  }\n\n  //Helper function for game end\n  function gameEnd(uint gameId, address winner) private {\n    games[gameId].gameOver = true;\n    uint256 payout = games[gameId].bid * 2;\n\n    _asyncTransfer(winner, payout);\n\n    emit logGameEnd(gameId, winner);\n  }\n\n}\n",
  "sourcePath": "/home/gustav/code/connect-four-dapp/contracts/ConnectFour.sol",
  "compiler": {
    "name": "solc",
    "version": "0.5.11+commit.c082d0b4.Emscripten.clang"
  },
  "schemaVersion": "3.4.10",
  "updatedAt": "2022-10-26T13:27:19.019Z",
  "devdoc": {
    "methods": {
      "payments(address)": {
        "details": "Returns the payments owed to an address.",
        "params": {
          "dest": "The creditor's address."
        }
      },
      "withdrawPayments(address)": {
        "details": "Withdraw accumulated payments.     * Note that _any_ account can call this function, not just the `payee`. This means that contracts unaware of the `PullPayment` protocol can still receive funds this way, by having a separate account call {withdrawPayments}.     * NOTE: This function has been deprecated, use {withdrawPaymentsWithGas} instead. Calling contracts with fixed gas limits is an anti-pattern and may break contract interactions in network upgrades (hardforks). https://diligence.consensys.net/blog/2019/09/stop-using-soliditys-transfer-now/[Learn more.]",
        "params": {
          "payee": "Whose payments will be withdrawn."
        }
      },
      "withdrawPaymentsWithGas(address)": {
        "details": "Same as {withdrawPayments}, but forwarding all gas to the recipient.     * WARNING: Forwarding all gas opens the door to reentrancy vulnerabilities. Make sure you trust the recipient, or are either following the checks-effects-interactions pattern or using {ReentrancyGuard}.     * _Available since v2.4.0._"
      }
    }
  },
  "userdoc": {
    "methods": {}
  }
}